{
  "contractName": "Migrations",
  "abi": [
    {
      "constant": true,
      "inputs": [],
      "name": "last_completed_migration",
      "outputs": [
        {
          "name": "",
          "type": "uint256"
        }
      ],
      "payable": false,
      "stateMutability": "view",
      "type": "function"
    },
    {
      "constant": true,
      "inputs": [],
      "name": "owner",
      "outputs": [
        {
          "name": "",
          "type": "address"
        }
      ],
      "payable": false,
      "stateMutability": "view",
      "type": "function"
    },
    {
      "constant": false,
      "inputs": [
        {
          "name": "completed",
          "type": "uint256"
        }
      ],
      "name": "setCompleted",
      "outputs": [],
      "payable": false,
      "stateMutability": "nonpayable",
      "type": "function"
    }
  ],
  "bytecode": "0x6080604052336000806101000a81548173ffffffffffffffffffffffffffffffffffffffff021916908373ffffffffffffffffffffffffffffffffffffffff16021790555034801561005057600080fd5b506101ca806100606000396000f3fe608060405260043610610051576000357c010000000000000000000000000000000000000000000000000000000090048063445df0ac146100565780638da5cb5b14610081578063fdacd576146100d8575b600080fd5b34801561006257600080fd5b5061006b610113565b6040518082815260200191505060405180910390f35b34801561008d57600080fd5b50610096610119565b604051808273ffffffffffffffffffffffffffffffffffffffff1673ffffffffffffffffffffffffffffffffffffffff16815260200191505060405180910390f35b3480156100e457600080fd5b50610111600480360360208110156100fb57600080fd5b810190808035906020019092919050505061013e565b005b60015481565b6000809054906101000a900473ffffffffffffffffffffffffffffffffffffffff1681565b6000809054906101000a900473ffffffffffffffffffffffffffffffffffffffff1673ffffffffffffffffffffffffffffffffffffffff163373ffffffffffffffffffffffffffffffffffffffff16141561019b57806001819055505b5056fea165627a7a723058203c7d893a9bd8096ede0ce68ee97b0f10ccab8967d65a2f2a1328c4a3335735780029",
  "source": "// SPDX-License-Identifier: MIT\npragma solidity >=0.4.22 <0.9.0;\n\ncontract Migrations {\n    address public owner = msg.sender;\n    uint public last_completed_migration;\n\n    modifier restricted(){\n        \n        if(msg.sender == owner)_;\n        \n    }\n\n    function setCompleted(uint completed) public restricted{\n        last_completed_migration = completed;\n    }\n}",
  "sourcePath": "/var/local/www/w3/crypto/blockchainEthereum/facet/blockchainEthereum/contracts/Migrations.sol",
  "compiler": {
    "name": "solc",
    "version": "0.5.1+commit.c8a2cb62.Emscripten.clang"
  },
  "schemaVersion": "3.4.16",
  "updatedAt": "2024-01-04T23:24:46.756Z",
  "networkType": "ethereum",
  "devdoc": {
    "methods": {}
  },
  "userdoc": {
    "methods": {}
  }
}